S00B00006D6F352E7372656308
S11300000C942A000C943C000C943C000C943C008E
S11300100C943C000C943C000C943C000C943C006C
S11300200C943C000C943C000C943C000C943C005C
S11300300C943C000C94FC000C943C000C943C008C
S11300400C943C000C943C000C943C000C943C003C
S11300500C943C0011241FBECFE5D8E0DEBFCDBF19
S113006020E0A0E6B0E001C01D92A236B207E1F79D
S11300700E943E000C948A030C940000CF93DF93FB
S1130080CDB7DEB729970FB6F894DEBF0FBECDBF4C
S113009081E0898383E08A8380E895E2A0E0B0E090
S11300A08B839C83AD83BE831F8218861986CE0101
S11300B003960E942801CE0101960E94D20080E09E
S11300C00E94E7006C0181E00E94E7007C0182E06D
S11300D00E94E7008C0183E00E94E700AC0182E902
S11300E0C816D10410F091E001C090E085EAE8164A
S11300F081E0F80610F021E001C020E00F36110580
S113010010F031E001C030E04838510510F081E0D2
S113011001C080E0913051F4211108C0311106C0B2
S1130120811104C081E10E947D01C9CF91110AC0EF
S1130130211108C0311106C0813021F482E10E94EE
S11301407D01BDCF913051F4213041F4313031F48F
S1130150813021F483E10E947D01B1CF91110AC065
S1130160211108C0313031F4811104C084E10E94AE
S11301707D01A5CF91110AC0213041F4313031F411
S1130180811104C085E10E947D0199CF911197CF1F
S1130190211195CF311193CF811191CF86E10E9426
S11301A07D018DCFFC0147B1908180E4989F90013F
S11301B01124942F9F73292B27B996B1906896B96F
S11301C096B18181987F8770892B86B9089588308C
S11301D080F497B1907E8770892B87B986B180644B
S11301E086B9349BFECF86B1806186B984B195B15E
S11301F008958FEF9FEF08951F920F920FB60F92FD
S113020011242F933F934F935F936F937F938F9317
S11302109F93AF93BF93EF93FF93E0916000F091AE
S11302206100309721F05C9902C05A9B0995FF91B7
S1130230EF91BF91AF919F918F917F916F915F915A
S11302404F913F912F910F900FBE0F901F901895D3
S1130250FC018BB182608BB98AB188618AB98AB199
S113026080688AB98AB18B7F8AB98AB18AB980B524
S1130270806880BD90B58581837040E1849F900142
S11302801124892F8F7C282B20BD80B5877F80BDCA
S113029080B59681292F30E0220F331F220F331FA0
S11302A0220F331F282B20BD80B594819370292FF2
S11302B030E0220F331F897F282B20BD608171819C
S11302C0828193810E948F0220E030E040E051E47B
S11302D00E941D039B01AC0160E074E284E79BE48F
S11302E00E94EE0120E030E040E85FE30E948101DB
S11302F00E94600269B970BD08955D9BFECF8CB900
S113030008955058BB27AA270E9499010C94E30230
S11303100E94D50238F00E94DC0220F039F49F3F9D
S113032019F426F40C94D2020EF4E095E7FB0C9435
S1130330CC02E92F0E94F40258F3BA17620773073C
S11303408407950720F079F4A6F50C9416030EF4AF
S1130350E0950B2EBA2FA02D0B01B90190010C01D1
S1130360CA01A0011124FF27591B99F0593F50F4E9
S1130370503E68F11A16F040A22F232F342F442741
S1130380585FF3CF469537952795A795F040539539
S1130390C9F77EF41F16BA0B620B730B840BBAF009
S11303A09150A1F0FF0FBB1F661F771F881FC2F774
S11303B00EC0BA0F621F731F841F48F48795779588
S11303C06795B795F7959E3F08F0B0CF9395880F42
S11303D008F09927EE0F9795879508950E940202D9
S11303E00C94E3020E94DC0258F00E94D50240F013
S11303F029F45F3F29F00C94CC0251110C9417039B
S11304000C94D2020E94F40268F39923B1F35523A9
S113041091F3951B550BBB27AA2762177307840713
S113042038F09F5F5F4F220F331F441FAA1FA9F3A9
S113043035D00E2E3AF0E0E832D091505040E69597
S1130440001CCAF72BD0FE2F29D0660F771F881FF8
S1130450BB1F261737074807AB07B0E809F0BB0BEB
S1130460802DBF01FF2793585F4F3AF09E3F5105FF
S113047078F00C94CC020C9417035F3FE4F3983E9D
S1130480D4F3869577956795B795F7959F5FC9F7E8
S1130490880F911D9695879597F90895E1E0660F69
S11304A0771F881FBB1F621773078407BA0720F0E2
S11304B0621B730B840BBA0BEE1F88F7E09508954B
S11304C00E94FC0288F09F5798F0B92F9927B751E2
S11304D0B0F0E1F0660F771F881F991F1AF0BA95E4
S11304E0C9F714C0B13091F00E941603B1E0089529
S11304F00C941603672F782F8827B85F39F0B93F1B
S1130500CCF3869577956795B395D9F73EF4909596
S11305108095709561957F4F8F4F9F4F0895E89414
S113052009C097FB3EF490958095709561957F4F37
S11305308F4F9F4F9923A9F0F92F96E9BB279395E5
S1130540F695879577956795B795F111F8CFFAF4F5
S1130550BB0F11F460FF1BC06F5F7F4F8F4F9F4F26
S113056016C0882311F096E911C0772321F09EE884
S1130570872F762F05C0662371F096E8862F70E0EA
S113058060E02AF09A95660F771F881FDAF7880FC4
S11305909695879597F9089597F99F6780E870E095
S11305A060E008959FEF80EC089500240A941616E5
S11305B0170618060906089500240A94121613064D
S11305C0140605060895092E0394000C11F48823DB
S11305D052F0BB0F40F4BF2B11F460FF04C06F5FF7
S11305E07F4F8F4F9F4F089557FD9058440F551FCD
S11305F059F05F3F71F04795880F97FB991F61F0A1
S11306009F3F79F087950895121613061406551F17
S1130610F2CF4695F1DF08C0161617061806991F83
S1130620F1CF86957105610508940895E894BB2778
S113063066277727CB0197F908950E9430030C941D
S1130640E3020E94D50238F00E94DC0220F09523D8
S113065011F00C94CC020C94D20211240C941703C4
S11306600E94F40270F3959FC1F3950F50E0551F5B
S1130670629FF001729FBB27F00DB11D639FAA27F3
S1130680F00DB11DAA1F649F6627B00DA11D661F42
S1130690829F2227B00DA11D621F739FB00DA11D63
S11306A0621F839FA00D611D221F749F3327A00D1D
S11306B0611D231F849F600D211D822F762F6A2FB9
S11306C011249F5750409AF0F1F088234AF0EE0F1E
S11306D0FF1FBB1F661F771F881F91505040A9F74B
S11306E09E3F510580F00C94CC020C9417035F3F9D
S11306F0E4F3983ED4F3869577956795B795F79587
S1130700E7959F5FC1F7FE2B880F911D96958795FE
S10B071097F90895F894FFCF56
S9030000FC
