S00C00006D6F35322E73726563D5
S11300000C942A000C9447000C9447000C9447006D
S11300100C9447000C9447000C9447000C94470040
S11300200C9447000C9447000C9447000C94470030
S11300300C9447000C9447000C940C030C94470058
S11300400C9447000C9447000C9447000C94470010
S11300500C94470011241FBECFE5D8E0DEBFCDBF0E
S113006010E0A0E6B0E0E8E3FBE002C005900D92EA
S1130070AE37B107D9F720E0AEE7B0E001C01D927A
S1130080A238B207E1F70E94A6000C949A050C94DA
S11300900000CF93C62F41E0682F84E390E00E94D4
S11300A0650141E06C2F84E390E00E94650141E02A
S11300B065E081E390E00E9465018AE690E00E9499
S11300C0A101CF910895CF93DF93C62F642FD22F30
S11300D0882319F0813069F017C041E085E390E08E
S11300E00E94830140E06D2F85E390E00E9483012C
S11300F00BC040E085E390E00E94830141E06D2F56
S113010085E390E00E948301C13061F028F0C230A1
S113011079F0C33099F017C060E070E081E00E948C
S1130120920211C064E170E081E00E9492020BC06F
S113013062E370E081E00E94920205C06AE570E02B
S113014081E00E949202DF91CF910895CF93DF93D3
S1130150CDB7DEB727970FB6F894DEBF0FBECDBF7D
S113016080E895E2A0E0B0E089839A83AB83BC8306
S11301701D821E821F82CE0101960E94210361E02E
S113018080E00E94490063E082E00E9449000E94EE
S113019076038131B1F421E040E062E081E00E9425
S11301A0630023E042E062E080E00E9463002FEFFE
S11301B085EA9EE0215080409040E1F700C00000B5
S11301C077C08231B1F421E040E062E080E00E9437
S11301D0630023E042E062E081E00E9463002FEFCD
S11301E085EA9EE0215080409040E1F700C0000085
S11301F05FC08331B1F421E040E062E081E00E941D
S1130200630023E042E062E081E00E9463002FEF9C
S113021085EA9EE0215080409040E1F700C0000054
S113022047C08431B1F421E040E062E080E00E9404
S1130230630023E042E062E080E00E9463002FEF6D
S113024085EA9EE0215080409040E1F700C0000024
S11302502FC08531B1F421E040E063E080E00E94EA
S1130260630023E042E063E080E00E9463002FEF3C
S113027085EA9EE0215080409040E1F700C00000F4
S113028017C08631A9F421E040E060E080E00E94DC
S1130290630023E042E060E081E00E9463002FEF0E
S11302A085EA9EE0215080409040E1F700C00000C4
S11302B021E040E060E080E00E94630023E042E04F
S11302C060E081E00E94630062CF442319F0413072
S11302D071F00895FC01408121E030E002C0220F5A
S11302E0331F6A95E2F72095242320830895FC01A7
S11302F0408121E030E002C0220F331F6A95E2F70B
S1130300242B20830895442319F0413071F008957B
S1130310FC01408121E030E002C0220F331F6A95C6
S1130320E2F72095242320830895FC01408121E0F5
S113033030E002C0220F331F6A95E2F7242B20839A
S11303400895CF92DF92EF92FF920F931F93CF9372
S1130350DF93FC018081882319F0813099F1D9C0A1
S113036013BE12BE93B7338181812281832B822BEA
S1130370892B83BF82818032B1F0803309F0C9C0F8
S11303808085918524E630E0281B390B3695279526
S113039036952795ABE7B4E10E948B059695879532
S11303A081958CBFB6C020853185369527953695C5
S11303B02795ABE7B4E10E948B05969587958195C7
S11303C08CBFA7C01FBC1EBC1DBC1CBC818180345B
S11303D079F08834C9F48FB58E7F8FBD8FB5826074
S11303E08FBD8EB588608EBD8EB580618EBD0CC00C
S11303F08FB581608FBD8FB582608FBD8EB5877FCD
S11304008EBD8EB580618EBDEF010681178164813A
S1130410758180E090E00E9490049B01AC0160E053
S113042070E08AE794E40E94EF036B017C01B80159
S113043080E090E00E949004A70196010E941E05AE
S11304409B01AC0160E074E284E79BE40E94EF034B
S11304500E9461046150710970937F0060937E0073
S113046077BD66BD8A81803261F1803309F04DC069
S11304708FB580648FBD8FB580688FBD8885998561
S113048064E670E0681B790B80E090E00E949004C1
S113049020E030E048EC52E40E94EF036B017C0161
S11304A060917E0070917F0080E090E00E94900453
S11304B0A70196010E941E050E9461047BBD6ABDCE
S11304C024C08FB58F7B8FBD8FB580688FBD688545
S11304D0798580E090E00E94900420E030E048ECD0
S11304E052E40E94EF036B017C0160917E007091E5
S11304F07F0080E090E00E949004A70196010E9492
S11305001E050E9461047BBD6ABD9EB58B81892B4B
S11305108EBDDF91CF911F910F91FF90EF90DF90EF
S1130520CF900895CF92DF92EF92FF92882319F033
S1130530813039F16CC0809162008032A1F0803347
S113054009F065C024E630E0261B370B3695279565
S113055036952795ABE7B4E10E948B059695879570
S113056081958CBF54C09B01369527953695279568
S1130570ABE7B4E10E948B059695879581958CBF76
S113058046C080916200803231F1803309F03FC06F
S113059084E690E09C01261B370BB90180E090E0D3
S11305A00E94900420E030E048EC52E40E94EF0303
S11305B06B017C0160917E0070917F0080E090E08F
S11305C00E949004A70196010E941E050E946104E6
S11305D07BBD6ABD1CC080E090E00E94900420E0D6
S11305E030E048EC52E40E94EF036B017C0160911F
S11305F07E0070917F0080E090E00E949004A7014B
S113060096010E941E050E9461047BBD6ABDFF9095
S1130610EF90DF90CF9008951F920F920FB60F9234
S113062011248F9380918000882329F08091810088
S11306308CB9109280008F910F900FBE0F901F9075
S11306401895FC018BB182608BB98AB188618AB933
S11306508AB180628AB98AB18B7F8AB98AB18AB930
S113066080B5806880BD90B58581837040E1849FAA
S113067090011124892F8F7C282B20BD80B5877F82
S113068080BD80B59681292F30E0220F331F220FC1
S1130690331F220F331F282B20BD80B59481937004
S11306A0292F30E0220F331F897F282B20BD608142
S11306B07181828193810E94900420E030E040E0C7
S11306C051E40E941E059B01AC0160E074E284E7E2
S11306D09BE40E94EF0320E030E040E85FE30E94E7
S11306E082030E94610469B970BD08955F9BFECFC7
S11306F05C9904C05A9904C08CB108958FEF089591
S11307008FEF08955058BB27AA270E949A030C9490
S1130710E4040E94D60438F00E94DD0420F039F489
S11307209F3F19F426F40C94D3040EF4E095E7FBF0
S11307300C94CD04E92F0E94F50458F3BA1762070C
S113074073078407950720F079F4A6F50C94170530
S11307500EF4E0950B2EBA2FA02D0B01B9019001D8
S11307600C01CA01A0011124FF27591B99F0593F1C
S113077050F4503E68F11A16F040A22F232F342F64
S11307804427585FF3CF469537952795A795F040B2
S11307905395C9F77EF41F16BA0B620B730B840BC7
S11307A0BAF09150A1F0FF0FBB1F661F771F881F7F
S11307B0C2F70EC0BA0F621F731F841F48F48795D7
S11307C077956795B795F7959E3F08F0B0CF9395C9
S11307D0880F08F09927EE0F9795879508950E9442
S11307E003040C94E4040E94DD0458F00E94D6042F
S11307F040F029F45F3F29F00C94CD0451110C947E
S113080018050C94D3040E94F50468F39923B1F3FA
S1130810552391F3951B550BBB27AA276217730722
S1130820840738F09F5F5F4F220F331F441FAA1FB6
S1130830A9F335D00E2E3AF0E0E832D09150504072
S1130840E695001CCAF72BD0FE2F29D0660F771F20
S1130850881FBB1F261737074807AB07B0E809F006
S1130860BB0B802DBF01FF2793585F4F3AF09E3F8B
S1130870510578F00C94CD040C9418055F3FE4F313
S1130880983ED4F3869577956795B795F7959F5FCE
S1130890C9F7880F911D9695879597F90895E1E01A
S11308A0660F771F881FBB1F621773078407BA0779
S11308B020F0621B730B840BBA0BEE1F88F7E095D4
S11308C008950E94FD0488F09F5798F0B92F992746
S11308D0B751B0F0E1F0660F771F881F991F1AF027
S11308E0BA95C9F714C0B13091F00E941705B1E070
S11308F008950C941705672F782F8827B85F39F06F
S1130900B93FCCF3869577956795B395D9F73EF4BF
S113091090958095709561957F4F8F4F9F4F089567
S1130920E89409C097FB3EF4909580957095619585
S11309307F4F8F4F9F4F9923A9F0F92F96E9BB273B
S11309409395F695879577956795B795F111F8CFB7
S1130950FAF4BB0F11F460FF1BC06F5F7F4F8F4F22
S11309609F4F16C0882311F096E911C0772321F018
S11309709EE8872F762F05C0662371F096E8862FB0
S113098070E060E02AF09A95660F771F881FDAF707
S1130990880F9695879597F9089597F99F6780E84A
S11309A070E060E008959FEF80EC089500240A94BD
S11309B01616170618060906089500240A94121636
S11309C01306140605060895092E0394000C11F469
S11309D0882352F0BB0F40F4BF2B11F460FF04C016
S11309E06F5F7F4F8F4F9F4F089557FD9058440F6F
S11309F0551F59F05F3F71F04795880F97FB991F7A
S1130A0061F09F3F79F08795089512161306140636
S1130A10551FF2CF4695F1DF08C0161617061806C3
S1130A20991FF1CF86957105610508940895E8949E
S1130A30BB2766277727CB0197F908950E943105D4
S1130A400C94E4040E94D60438F00E94DD0420F0E3
S1130A50952311F00C94CD040C94D30411240C941C
S1130A6018050E94F50470F3959FC1F3950F50E0AB
S1130A70551F629FF001729FBB27F00DB11D639F4C
S1130A80AA27F00DB11DAA1F649F6627B00DA11DF2
S1130A90661F829F2227B00DA11D621F739FB00D98
S1130AA0A11D621F839FA00D611D221F749F332708
S1130AB0A00D611D231F849F600D211D822F762FA1
S1130AC06A2F11249F5750409AF0F1F088234AF07E
S1130AD0EE0FFF1FBB1F661F771F881F91505040EA
S1130AE0A9F79E3F510580F00C94CD040C94180591
S1130AF05F3FE4F3983ED4F3869577956795B79571
S1130B00F795E7959F5FC1F7FE2B880F911D96958A
S1130B10879597F90895A29FB001B39FC001A39F41
S1130B20700D811D1124911DB29F700D811D112422
S10B0B30911D0895F894FFCF14
S1130B38004830040100000132000148300301007C
S1110B48400032000248300501000004500055
S9030000FC
